{
  "contractName": "TokenV2",
  "abi": [
    {
      "anonymous": false,
      "inputs": [
        {
          "indexed": false,
          "internalType": "uint256",
          "name": "totalSupply",
          "type": "uint256"
        }
      ],
      "name": "TotalSupplyChanged",
      "type": "event"
    },
    {
      "inputs": [],
      "name": "version",
      "outputs": [
        {
          "internalType": "string",
          "name": "",
          "type": "string"
        }
      ],
      "stateMutability": "view",
      "type": "function",
      "constant": true
    },
    {
      "inputs": [
        {
          "internalType": "uint256",
          "name": "_totalSupply",
          "type": "uint256"
        }
      ],
      "name": "updateTotalSupply",
      "outputs": [],
      "stateMutability": "nonpayable",
      "type": "function"
    },
    {
      "inputs": [],
      "name": "getTotalSupply",
      "outputs": [
        {
          "internalType": "uint256",
          "name": "",
          "type": "uint256"
        }
      ],
      "stateMutability": "view",
      "type": "function",
      "constant": true
    },
    {
      "inputs": [],
      "name": "mintToken",
      "outputs": [],
      "stateMutability": "nonpayable",
      "type": "function"
    }
  ],
  "bytecode": "0x60806040526040518060400160405280600281526020017f56320000000000000000000000000000000000000000000000000000000000008152506001908051906020019061004f929190610062565b5034801561005c57600080fd5b50610166565b82805461006e90610105565b90600052602060002090601f01602090048101928261009057600085556100d7565b82601f106100a957805160ff19168380011785556100d7565b828001600101855582156100d7579182015b828111156100d65782518255916020019190600101906100bb565b5b5090506100e491906100e8565b5090565b5b808211156101015760008160009055506001016100e9565b5090565b6000600282049050600182168061011d57607f821691505b6020821081141561013157610130610137565b5b50919050565b7f4e487b7100000000000000000000000000000000000000000000000000000000600052602260045260246000fd5b61040c806101756000396000f3fe608060405234801561001057600080fd5b506004361061004c5760003560e01c80632004ffd91461005157806354fd4d501461005b57806366d49bab14610079578063c4e41b2214610095575b600080fd5b6100596100b3565b005b6100636100cb565b604051610070919061022d565b60405180910390f35b610093600480360381019061008e91906101b8565b610159565b005b61009d61019a565b6040516100aa919061024f565b60405180910390f35b6103e86000546100c39190610286565b600081905550565b600180546100d890610319565b80601f016020809104026020016040519081016040528092919081815260200182805461010490610319565b80156101515780601f1061012657610100808354040283529160200191610151565b820191906000526020600020905b81548152906001019060200180831161013457829003601f168201915b505050505081565b806000819055507fc8b17f75f53401f272e9ee7fa431e81ba33779363238896180425a422420c8f78160405161018f919061024f565b60405180910390a150565b60008054905090565b6000813590506101b2816103bf565b92915050565b6000602082840312156101ce576101cd6103a9565b5b60006101dc848285016101a3565b91505092915050565b60006101f08261026a565b6101fa8185610275565b935061020a8185602086016102e6565b610213816103ae565b840191505092915050565b610227816102dc565b82525050565b6000602082019050818103600083015261024781846101e5565b905092915050565b6000602082019050610264600083018461021e565b92915050565b600081519050919050565b600082825260208201905092915050565b6000610291826102dc565b915061029c836102dc565b9250827fffffffffffffffffffffffffffffffffffffffffffffffffffffffffffffffff038211156102d1576102d061034b565b5b828201905092915050565b6000819050919050565b60005b838110156103045780820151818401526020810190506102e9565b83811115610313576000848401525b50505050565b6000600282049050600182168061033157607f821691505b602082108114156103455761034461037a565b5b50919050565b7f4e487b7100000000000000000000000000000000000000000000000000000000600052601160045260246000fd5b7f4e487b7100000000000000000000000000000000000000000000000000000000600052602260045260246000fd5b600080fd5b6000601f19601f8301169050919050565b6103c8816102dc565b81146103d357600080fd5b5056fea26469706673582212200fb93b8b0074e64522e55b70a9dd8a2a64a6a177e9fee3e9cd0950a67adb425c64736f6c63430008070033",
  "immutableReferences": {},
  "source": "// SPDX-License-Identifier: MIT\npragma solidity ^0.8.0;\n \ncontract TokenV2 {\n    uint256 private totalSupply;\n    string public version = 'V2';\n \n    event TotalSupplyChanged(uint256 totalSupply);\n \n    function updateTotalSupply(uint256 _totalSupply) public {\n        totalSupply = _totalSupply;\n        emit TotalSupplyChanged(_totalSupply);\n    }\n \n    function getTotalSupply() public view returns (uint256) {\n        return totalSupply;\n    }\n\n    function mintToken() public {\n        totalSupply = totalSupply + 1000;\n    }\n}",
  "sourcePath": "/Users/sirqo/Documents/blockchain/upgradable/contracts/TokenV2.sol",
  "compiler": {
    "name": "solc",
    "version": "0.8.7+commit.e28d00a7.Emscripten.clang"
  },
  "schemaVersion": "3.4.3",
  "updatedAt": "2021-10-04T02:35:46.065Z",
  "networkType": "ethereum",
  "devdoc": {
    "kind": "dev",
    "methods": {},
    "version": 1
  },
  "userdoc": {
    "kind": "user",
    "methods": {},
    "version": 1
  }
}