{
  "contractName": "Token",
  "abi": [
    {
      "anonymous": false,
      "inputs": [
        {
          "indexed": false,
          "internalType": "uint256",
          "name": "totalSupply",
          "type": "uint256"
        }
      ],
      "name": "TotalSupplyChanged",
      "type": "event"
    },
    {
      "inputs": [],
      "name": "version",
      "outputs": [
        {
          "internalType": "string",
          "name": "",
          "type": "string"
        }
      ],
      "stateMutability": "view",
      "type": "function"
    },
    {
      "inputs": [
        {
          "internalType": "uint256",
          "name": "_totalSupply",
          "type": "uint256"
        }
      ],
      "name": "updateTotalSupply",
      "outputs": [],
      "stateMutability": "nonpayable",
      "type": "function"
    },
    {
      "inputs": [],
      "name": "getTotalSupply",
      "outputs": [
        {
          "internalType": "uint256",
          "name": "",
          "type": "uint256"
        }
      ],
      "stateMutability": "view",
      "type": "function"
    }
  ],
  "bytecode": "0x60806040526040518060400160405280600281526020017f56310000000000000000000000000000000000000000000000000000000000008152506001908051906020019061004f929190610062565b5034801561005c57600080fd5b50610166565b82805461006e90610134565b90600052602060002090601f01602090048101928261009057600085556100d7565b82601f106100a957805160ff19168380011785556100d7565b828001600101855582156100d7579182015b828111156100d65782518255916020019190600101906100bb565b5b5090506100e491906100e8565b5090565b5b808211156101015760008160009055506001016100e9565b5090565b7f4e487b7100000000000000000000000000000000000000000000000000000000600052602260045260246000fd5b6000600282049050600182168061014c57607f821691505b602082108114156101605761015f610105565b5b50919050565b61035a806101756000396000f3fe608060405234801561001057600080fd5b50600436106100415760003560e01c806354fd4d501461004657806366d49bab14610064578063c4e41b2214610080575b600080fd5b61004e61009e565b60405161005b919061020f565b60405180910390f35b61007e6004803603810190610079919061026c565b61012c565b005b61008861016d565b60405161009591906102a8565b60405180910390f35b600180546100ab906102f2565b80601f01602080910402602001604051908101604052809291908181526020018280546100d7906102f2565b80156101245780601f106100f957610100808354040283529160200191610124565b820191906000526020600020905b81548152906001019060200180831161010757829003601f168201915b505050505081565b806000819055507fc8b17f75f53401f272e9ee7fa431e81ba33779363238896180425a422420c8f78160405161016291906102a8565b60405180910390a150565b60008054905090565b600081519050919050565b600082825260208201905092915050565b60005b838110156101b0578082015181840152602081019050610195565b838111156101bf576000848401525b50505050565b6000601f19601f8301169050919050565b60006101e182610176565b6101eb8185610181565b93506101fb818560208601610192565b610204816101c5565b840191505092915050565b6000602082019050818103600083015261022981846101d6565b905092915050565b600080fd5b6000819050919050565b61024981610236565b811461025457600080fd5b50565b60008135905061026681610240565b92915050565b60006020828403121561028257610281610231565b5b600061029084828501610257565b91505092915050565b6102a281610236565b82525050565b60006020820190506102bd6000830184610299565b92915050565b7f4e487b7100000000000000000000000000000000000000000000000000000000600052602260045260246000fd5b6000600282049050600182168061030a57607f821691505b6020821081141561031e5761031d6102c3565b5b5091905056fea2646970667358221220555950c0e6b30f966fc2f50b6797202231fcbcaa9e680bc52c8c74248cbe982564736f6c63430008090033",
  "immutableReferences": {},
  "source": "// SPDX-License-Identifier: MIT\npragma solidity ^0.8.0;\n \ncontract Token {\n    uint256 private totalSupply;\n    string public version = 'V1';\n \n    event TotalSupplyChanged(uint256 totalSupply);\n \n    function updateTotalSupply(uint256 _totalSupply) public {\n        totalSupply = _totalSupply;\n        emit TotalSupplyChanged(_totalSupply);\n    }\n \n    function getTotalSupply() public view returns (uint256) {\n        return totalSupply;\n    }\n}",
  "sourcePath": "/Users/sirqo/Documents/blockchain/upgradable/contracts/Token.sol",
  "compiler": {
    "name": "solc",
    "version": "0.8.9+commit.e5eed63a.Emscripten.clang"
  },
  "schemaVersion": "3.4.3",
  "updatedAt": "2021-10-04T02:35:43.327Z",
  "devdoc": {
    "kind": "dev",
    "methods": {},
    "version": 1
  },
  "userdoc": {
    "kind": "user",
    "methods": {},
    "version": 1
  }
}